{
  "contractName": "Voting",
  "abi": [
    {
      "inputs": [
        {
          "internalType": "string",
          "name": "_option1",
          "type": "string"
        },
        {
          "internalType": "string",
          "name": "_option2",
          "type": "string"
        }
      ],
      "stateMutability": "nonpayable",
      "type": "constructor"
    },
    {
      "anonymous": false,
      "inputs": [
        {
          "indexed": true,
          "internalType": "address",
          "name": "voter",
          "type": "address"
        },
        {
          "indexed": false,
          "internalType": "string",
          "name": "optionVoted",
          "type": "string"
        }
      ],
      "name": "Voted",
      "type": "event"
    },
    {
      "inputs": [
        {
          "internalType": "address",
          "name": "",
          "type": "address"
        }
      ],
      "name": "hasVoted",
      "outputs": [
        {
          "internalType": "bool",
          "name": "",
          "type": "bool"
        }
      ],
      "stateMutability": "view",
      "type": "function",
      "constant": true
    },
    {
      "inputs": [],
      "name": "option1",
      "outputs": [
        {
          "internalType": "string",
          "name": "",
          "type": "string"
        }
      ],
      "stateMutability": "view",
      "type": "function",
      "constant": true
    },
    {
      "inputs": [],
      "name": "option2",
      "outputs": [
        {
          "internalType": "string",
          "name": "",
          "type": "string"
        }
      ],
      "stateMutability": "view",
      "type": "function",
      "constant": true
    },
    {
      "inputs": [],
      "name": "owner",
      "outputs": [
        {
          "internalType": "address",
          "name": "",
          "type": "address"
        }
      ],
      "stateMutability": "view",
      "type": "function",
      "constant": true
    },
    {
      "inputs": [],
      "name": "votesForOption1",
      "outputs": [
        {
          "internalType": "uint256",
          "name": "",
          "type": "uint256"
        }
      ],
      "stateMutability": "view",
      "type": "function",
      "constant": true
    },
    {
      "inputs": [],
      "name": "votesForOption2",
      "outputs": [
        {
          "internalType": "uint256",
          "name": "",
          "type": "uint256"
        }
      ],
      "stateMutability": "view",
      "type": "function",
      "constant": true
    },
    {
      "inputs": [
        {
          "internalType": "string",
          "name": "option",
          "type": "string"
        }
      ],
      "name": "vote",
      "outputs": [],
      "stateMutability": "nonpayable",
      "type": "function"
    },
    {
      "inputs": [],
      "name": "getVoteCount",
      "outputs": [
        {
          "internalType": "string",
          "name": "",
          "type": "string"
        }
      ],
      "stateMutability": "view",
      "type": "function",
      "constant": true
    }
  ],
  "bytecode": "0x60806040523480156200001157600080fd5b506040516200165d3803806200165d833981810160405281019062000037919062000236565b336000806101000a81548173ffffffffffffffffffffffffffffffffffffffff021916908373ffffffffffffffffffffffffffffffffffffffff160217905550816001908162000088919062000506565b5080600290816200009a919062000506565b505050620005ed565b6000604051905090565b600080fd5b600080fd5b600080fd5b600080fd5b6000601f19601f8301169050919050565b7f4e487b7100000000000000000000000000000000000000000000000000000000600052604160045260246000fd5b6200010c82620000c1565b810181811067ffffffffffffffff821117156200012e576200012d620000d2565b5b80604052505050565b600062000143620000a3565b905062000151828262000101565b919050565b600067ffffffffffffffff821115620001745762000173620000d2565b5b6200017f82620000c1565b9050602081019050919050565b60005b83811015620001ac5780820151818401526020810190506200018f565b60008484015250505050565b6000620001cf620001c98462000156565b62000137565b905082815260208101848484011115620001ee57620001ed620000bc565b5b620001fb8482856200018c565b509392505050565b600082601f8301126200021b576200021a620000b7565b5b81516200022d848260208601620001b8565b91505092915050565b6000806040838503121562000250576200024f620000ad565b5b600083015167ffffffffffffffff811115620002715762000270620000b2565b5b6200027f8582860162000203565b925050602083015167ffffffffffffffff811115620002a357620002a2620000b2565b5b620002b18582860162000203565b9150509250929050565b600081519050919050565b7f4e487b7100000000000000000000000000000000000000000000000000000000600052602260045260246000fd5b600060028204905060018216806200030e57607f821691505b602082108103620003245762000323620002c6565b5b50919050565b60008190508160005260206000209050919050565b60006020601f8301049050919050565b600082821b905092915050565b6000600883026200038e7fffffffffffffffffffffffffffffffffffffffffffffffffffffffffffffffff826200034f565b6200039a86836200034f565b95508019841693508086168417925050509392505050565b6000819050919050565b6000819050919050565b6000620003e7620003e1620003db84620003b2565b620003bc565b620003b2565b9050919050565b6000819050919050565b6200040383620003c6565b6200041b6200041282620003ee565b8484546200035c565b825550505050565b600090565b6200043262000423565b6200043f818484620003f8565b505050565b5b8181101562000467576200045b60008262000428565b60018101905062000445565b5050565b601f821115620004b65762000480816200032a565b6200048b846200033f565b810160208510156200049b578190505b620004b3620004aa856200033f565b83018262000444565b50505b505050565b600082821c905092915050565b6000620004db60001984600802620004bb565b1980831691505092915050565b6000620004f68383620004c8565b9150826002028217905092915050565b6200051182620002bb565b67ffffffffffffffff8111156200052d576200052c620000d2565b5b620005398254620002f5565b620005468282856200046b565b600060209050601f8311600181146200057e576000841562000569578287015190505b620005758582620004e8565b865550620005e5565b601f1984166200058e866200032a565b60005b82811015620005b85784890151825560018201915060208501945060208101905062000591565b86831015620005d85784890151620005d4601f891682620004c8565b8355505b6001600288020188555050505b505050505050565b61106080620005fd6000396000f3fe608060405234801561001057600080fd5b50600436106100885760003560e01c806392d2e4381161005b57806392d2e43814610117578063ad69ab9514610135578063e7b3387c14610153578063fc36e15b1461017157610088565b806304aa52231461008d57806309eef43e146100ab5780630fde0197146100db5780638da5cb5b146100f9575b600080fd5b61009561018d565b6040516100a2919061074d565b60405180910390f35b6100c560048036038101906100c091906107da565b610193565b6040516100d29190610822565b60405180910390f35b6100e36101b3565b6040516100f0919061074d565b60405180910390f35b6101016101b9565b60405161010e919061084c565b60405180910390f35b61011f6101dd565b60405161012c91906108f7565b60405180910390f35b61013d61026b565b60405161014a91906108f7565b60405180910390f35b61015b6102f9565b60405161016891906108f7565b60405180910390f35b61018b60048036038101906101869190610a4e565b61033c565b005b60035481565b60056020528060005260406000206000915054906101000a900460ff1681565b60045481565b60008054906101000a900473ffffffffffffffffffffffffffffffffffffffff1681565b600180546101ea90610ac6565b80601f016020809104026020016040519081016040528092919081815260200182805461021690610ac6565b80156102635780601f1061023857610100808354040283529160200191610263565b820191906000526020600020905b81548152906001019060200180831161024657829003601f168201915b505050505081565b6002805461027890610ac6565b80601f01602080910402602001604051908101604052809291908181526020018280546102a490610ac6565b80156102f15780601f106102c6576101008083540402835291602001916102f1565b820191906000526020600020905b8154815290600101906020018083116102d457829003601f168201915b505050505081565b606060016103086003546105d4565b60026103156004546105d4565b6040516020016103289493929190610caf565b604051602081830303815290604052905090565b6000815111610380576040517f08c379a000000000000000000000000000000000000000000000000000000000815260040161037790610d65565b60405180910390fd5b600560003373ffffffffffffffffffffffffffffffffffffffff1673ffffffffffffffffffffffffffffffffffffffff16815260200190815260200160002060009054906101000a900460ff161561040d576040517f08c379a000000000000000000000000000000000000000000000000000000000815260040161040490610dd1565b60405180910390fd5b600160405160200161041f9190610df1565b60405160208183030381529060405280519060200120816040516020016104469190610e08565b604051602081830303815290604052805190602001200361047e576003600081548092919061047490610e4e565b919050555061052b565b60026040516020016104909190610df1565b60405160208183030381529060405280519060200120816040516020016104b79190610e08565b60405160208183030381529060405280519060200120036104ef57600460008154809291906104e590610e4e565b919050555061052a565b6040517f08c379a000000000000000000000000000000000000000000000000000000000815260040161052190610ee2565b60405180910390fd5b5b6001600560003373ffffffffffffffffffffffffffffffffffffffff1673ffffffffffffffffffffffffffffffffffffffff16815260200190815260200160002060006101000a81548160ff0219169083151502179055503373ffffffffffffffffffffffffffffffffffffffff167fcb6783276e8a4347387036bbfea000268f0a4b1f8c46ac79980609f2af8d2acd826040516105c991906108f7565b60405180910390a250565b60606000820361061b576040518060400160405280600181526020017f3000000000000000000000000000000000000000000000000000000000000000815250905061072f565b600082905060005b6000821461064d57808061063690610e4e565b915050600a826106469190610f31565b9150610623565b60008167ffffffffffffffff81111561066957610668610923565b5b6040519080825280601f01601f19166020018201604052801561069b5781602001600182028036833780820191505090505b5090505b60008514610728576001826106b49190610f62565b9150600a856106c39190610f96565b60306106cf9190610fc7565b60f81b8183815181106106e5576106e4610ffb565b5b60200101907effffffffffffffffffffffffffffffffffffffffffffffffffffffffffffff1916908160001a905350600a856107219190610f31565b945061069f565b8093505050505b919050565b6000819050919050565b61074781610734565b82525050565b6000602082019050610762600083018461073e565b92915050565b6000604051905090565b600080fd5b600080fd5b600073ffffffffffffffffffffffffffffffffffffffff82169050919050565b60006107a78261077c565b9050919050565b6107b78161079c565b81146107c257600080fd5b50565b6000813590506107d4816107ae565b92915050565b6000602082840312156107f0576107ef610772565b5b60006107fe848285016107c5565b91505092915050565b60008115159050919050565b61081c81610807565b82525050565b60006020820190506108376000830184610813565b92915050565b6108468161079c565b82525050565b6000602082019050610861600083018461083d565b92915050565b600081519050919050565b600082825260208201905092915050565b60005b838110156108a1578082015181840152602081019050610886565b60008484015250505050565b6000601f19601f8301169050919050565b60006108c982610867565b6108d38185610872565b93506108e3818560208601610883565b6108ec816108ad565b840191505092915050565b6000602082019050818103600083015261091181846108be565b905092915050565b600080fd5b600080fd5b7f4e487b7100000000000000000000000000000000000000000000000000000000600052604160045260246000fd5b61095b826108ad565b810181811067ffffffffffffffff8211171561097a57610979610923565b5b80604052505050565b600061098d610768565b90506109998282610952565b919050565b600067ffffffffffffffff8211156109b9576109b8610923565b5b6109c2826108ad565b9050602081019050919050565b82818337600083830152505050565b60006109f16109ec8461099e565b610983565b905082815260208101848484011115610a0d57610a0c61091e565b5b610a188482856109cf565b509392505050565b600082601f830112610a3557610a34610919565b5b8135610a458482602086016109de565b91505092915050565b600060208284031215610a6457610a63610772565b5b600082013567ffffffffffffffff811115610a8257610a81610777565b5b610a8e84828501610a20565b91505092915050565b7f4e487b7100000000000000000000000000000000000000000000000000000000600052602260045260246000fd5b60006002820490506001821680610ade57607f821691505b602082108103610af157610af0610a97565b5b50919050565b600081905092915050565b60008190508160005260206000209050919050565b60008154610b2481610ac6565b610b2e8186610af7565b94506001821660008114610b495760018114610b5e57610b91565b60ff1983168652811515820286019350610b91565b610b6785610b02565b60005b83811015610b8957815481890152600182019150602081019050610b6a565b838801955050505b50505092915050565b7f3a20000000000000000000000000000000000000000000000000000000000000600082015250565b6000610bd0600283610af7565b9150610bdb82610b9a565b600282019050919050565b6000610bf182610867565b610bfb8185610af7565b9350610c0b818560208601610883565b80840191505092915050565b7f20766f7465732c20000000000000000000000000000000000000000000000000600082015250565b6000610c4d600883610af7565b9150610c5882610c17565b600882019050919050565b7f20766f7465730000000000000000000000000000000000000000000000000000600082015250565b6000610c99600683610af7565b9150610ca482610c63565b600682019050919050565b6000610cbb8287610b17565b9150610cc682610bc3565b9150610cd28286610be6565b9150610cdd82610c40565b9150610ce98285610b17565b9150610cf482610bc3565b9150610d008284610be6565b9150610d0b82610c8c565b915081905095945050505050565b7f4f7074696f6e2063616e6e6f7420626520656d70747900000000000000000000600082015250565b6000610d4f601683610872565b9150610d5a82610d19565b602082019050919050565b60006020820190508181036000830152610d7e81610d42565b9050919050565b7f596f75206861766520616c726561647920766f74656400000000000000000000600082015250565b6000610dbb601683610872565b9150610dc682610d85565b602082019050919050565b60006020820190508181036000830152610dea81610dae565b9050919050565b6000610dfd8284610b17565b915081905092915050565b6000610e148284610be6565b915081905092915050565b7f4e487b7100000000000000000000000000000000000000000000000000000000600052601160045260246000fd5b6000610e5982610734565b91507fffffffffffffffffffffffffffffffffffffffffffffffffffffffffffffffff8203610e8b57610e8a610e1f565b5b600182019050919050565b7f496e76616c6964206f7074696f6e000000000000000000000000000000000000600082015250565b6000610ecc600e83610872565b9150610ed782610e96565b602082019050919050565b60006020820190508181036000830152610efb81610ebf565b9050919050565b7f4e487b7100000000000000000000000000000000000000000000000000000000600052601260045260246000fd5b6000610f3c82610734565b9150610f4783610734565b925082610f5757610f56610f02565b5b828204905092915050565b6000610f6d82610734565b9150610f7883610734565b9250828203905081811115610f9057610f8f610e1f565b5b92915050565b6000610fa182610734565b9150610fac83610734565b925082610fbc57610fbb610f02565b5b828206905092915050565b6000610fd282610734565b9150610fdd83610734565b9250828201905080821115610ff557610ff4610e1f565b5b92915050565b7f4e487b7100000000000000000000000000000000000000000000000000000000600052603260045260246000fdfea264697066735822122049f822b954a123a926b75cf475e5a03133494800fa7efe0181d84d8e1e35772f64736f6c63430008110033",
  "immutableReferences": {},
  "source": "// SPDX-License-Identifier: MIT\npragma solidity ^0.8.0;\n\ncontract Voting {\n    address public owner;\n\n    string public option1;\n    string public option2;\n\n    uint256 public votesForOption1;\n    uint256 public votesForOption2;\n\n    mapping(address => bool) public hasVoted;\n\n    event Voted(address indexed voter, string optionVoted);\n\n    modifier onlyOwner() {\n        require(msg.sender == owner, \"Only the owner can call this function\");\n        _;\n    }\n\n    constructor(string memory _option1, string memory _option2) {\n        owner = msg.sender;\n        option1 = _option1;\n        option2 = _option2;\n    }\n\n    function vote(string memory option) public {\n        require(bytes(option).length > 0, \"Option cannot be empty\");\n        require(!hasVoted[msg.sender], \"You have already voted\");\n\n        if (\n            keccak256(abi.encodePacked(option)) ==\n            keccak256(abi.encodePacked(option1))\n        ) {\n            votesForOption1++;\n        } else if (\n            keccak256(abi.encodePacked(option)) ==\n            keccak256(abi.encodePacked(option2))\n        ) {\n            votesForOption2++;\n        } else {\n            revert(\"Invalid option\");\n        }\n\n        hasVoted[msg.sender] = true;\n\n        emit Voted(msg.sender, option);\n    }\n\n    function getVoteCount() public view returns (string memory) {\n        return\n            string(\n                abi.encodePacked(\n                    option1,\n                    \": \",\n                    toString(votesForOption1),\n                    \" votes, \",\n                    option2,\n                    \": \",\n                    toString(votesForOption2),\n                    \" votes\"\n                )\n            );\n    }\n\n    function toString(uint256 value) internal pure returns (string memory) {\n        if (value == 0) {\n            return \"0\";\n        }\n        uint256 temp = value;\n        uint256 digits;\n        while (temp != 0) {\n            digits++;\n            temp /= 10;\n        }\n        bytes memory buffer = new bytes(digits);\n        while (value != 0) {\n            digits -= 1;\n            buffer[digits] = bytes1(uint8(48 + uint256(value % 10)));\n            value /= 10;\n        }\n        return string(buffer);\n    }\n}\n",
  "sourcePath": "C:\\Users\\Sarah\\workspace\\src\\github\\SmartContracts\\contracts\\Voting.sol",
  "compiler": {
    "name": "solc",
    "version": "0.8.17+commit.8df45f5f.Emscripten.clang"
  },
  "schemaVersion": "3.4.16",
  "updatedAt": "2023-12-01T15:08:26.675Z",
  "networkType": "ethereum",
  "devdoc": {
    "kind": "dev",
    "methods": {},
    "version": 1
  },
  "userdoc": {
    "kind": "user",
    "methods": {},
    "version": 1
  }
}